:100D85002D2D2D524649442042617365642D2D2D2C
:100D95000053656375726974792053797374656D51
:100DA500005445414D2D3100616B682D6872732DDE
:100DB5006164692D736976005363616E20596F759F
:100DC5007220436172643A0052666964204E6F2E48
:100DD5002069733A00313030333541443835364374
:100DE500310020417574686F726973656400205520
:100DF5007365725F3120004D656D6265723A200042
:100E050025640031363030414443333639413100B1
:100E150020557365725F32200031363030414243D0
:100E250044313437410020557365725F33200055D6
:100E35004E415554484F5249534544005472792008
:0D0E4500416E6F7468657220436172640035
:0310E000013600D6
:100FDB00D2A4C2A37F2C7E01120FEDC2A4C2A37FA9
:020FEB00C81E1E
:100FED00E4FDFCC3ED9FEE6480F8EC648098501531
:100FFD00E4FBFA0BBB00010ABA04F8BBFBF50DBD0F
:05100D0000010C80DE73
:0110120022BB
:1010AB00D290C291D2927F057E00120FEDC2922296
:10109800A907E954F0F5901210ABE9C454F0F590A3
:0310A8000210AB88
:0E10BB00C290D2927F057E00120FEDC29222EB
:091068007FC87E00120FED7F012C
:10107100A907E954F0F5901210BBE9C454F0F590BA
:031081000210BB9F
:0B1013007F011210717BFF7A0D79E75E
:10101E008B088A09890AAB08AA09A90A120E52FF7F
:10102E0060101210987401250AF50AE43509F509C5
:03103E0080E42229
:101084007F021210717F281210717F0E1210717F6F
:0410940001021071D4
:0C10C900758920759850758DFDD28E221F
:0B10D5003098FD859936C298AF362296
:100B5C00D2A61210C91210847BFF7A0D798512105F
:100B6C001E7FC01210717BFF7A0D799612101E7FBA
:100B7C00F47E01120FED1210847BFF7A0D79A61210
:100B8C00101E7FC01210717BFF7A0D79AD12101EF2
:100B9C007F907E01120FED7F011210717BFF7A0D99
:100BAC0079BD12101E7FC0121071E4F569F569AFA2
:100BBC0069EF3395E0FEC3EF940CEE6480948050A3
:100BCC000E1210D574232569F8A607056980E07408
:100BDC00232569F8E4F67F011210717BFF7A0D79F9
:100BEC00CD12101E7FC0121071E4F569AF69EF339E
:100BFC0095E0FEC3EF940CEE64809480500D74234A
:100C0C002FF8E6FF121098056980E17F647E0012D0
:100C1C000FED750BFF750C0D750DDA750E00750F5C
:100C2C000C7B007A007923120F6CEF3395E04F7038
:100C3C00500531E531700205301210131210687B2B
:100C4C00FF7A0D79F312101E7FC01210717BFF7AA0
:100C5C000D79FC12101E750BFF750C0E750D0585AC
:100C6C00300E85310F7B007A00792212085C7B00F4
:100C7C007A00792212101E120FDBC2A4D2A3020B2F
:100C8C00A3750BFF750C0E750D08750E00750F0C0A
:100C9C007B007A007923120F6CEF3395E04F70369E
:100CAC000533E533700205321210131210687BFF06
:100CBC007A0E791512101E7FC01210717BFF7A0DFF
:100CCC0079FC12101E750BFF750C0E750D05853217
:100CDC000E85330F8053750BFF750C0E750D1E753D
:100CEC000E00750F0C7B007A007923120F6CEF331A
:100CFC0095E04F705A0535E5357002053412101326
:100D0C001210687BFF7A0E792B12101E7FC0121006
:100D1C00717BFF7A0D79FC12101E750BFF750C0E92
:100D2C00750D0585340E85350F7B007A00792212FE
:100D3C00085C7B007A00792212101E120FDBC2A411
:100D4C00D2A37F2C0E120FEDC2A4C2A3020BA37F61
:100D5C00011210717BFF7A0E793412101E7FC012B3
:100D6C0010717BFF7A0E794112101EC2A67F2C7E69
:090D7C0001120FEDD2A6020BA337
:03000000020EE00D
:0C0EE000787FE4F6D8FD758169020F27C9
:100E5200BB010689828A83E0225002E722BBFE029E
:090E6200E32289828A83E49322D1
:10080000E517240BF8E60517227808300702780B65
:10081000E475F001120EAA020E522000EB7F2ED2D8
:10082000008018EF540F2490D43440D4FF30040BD0
:10083000EF24BFB41A0050032461FFE518600215CD
:1008400018051BE51B7002051A30070D7808E475C2
:10085000F001120EAAEF020E980210417403D207A3
:100860008003E4C207F5178B088A09890AE4F518A2
:10087000F51AF51BE51860077F2012083B80F57517
:1008800019FFC201C200C202C203C205C206C208E9
:10089000120809FF700D3007057F0012084CAF1BCE
:1008A000AE1A22B4255FC2D5C204120809FF24D0B3
:1008B000B40A00501A75F00A781830D50508B6FF4A
:1008C0000106C6A426F620D5047002D20380D924DE
:1008D000CFB41A00EF5004C2E5D204020A4CD20190
:1008E00080C6D20080C0D20280BCD2D580BAD205E8
:1008F00080B47F2012083B2002077401B518004025
:10090000F1120800FF12083B020874D208D20680D8
:1009100095120800FB120800FA120800F94A4B7001
:1009200006791D7A0B7BFF20022EE518602A7E00D7
:100930008E82758300120E6B60060EEE651970F0E4
:10094000C2D5EBC0E0EAC0E0E9C0E0EE120A93D005
:10095000E0F9D0E0FAD0E0FB120E52FF60AAEBC043
:10096000E0EAC0E0E9C0E012083BD0E02401F9D0A1
:10097000E03400FAD0E0FBE5190460DCD519D98039
:10098000877BFF7A0A798FD202809C791080027966
:1009900008C206C2088008D2D5790A8004790AC242
:1009A000D5E519047002F519E4FAFDFEFF120800FE
:1009B000FC7B08200113120800FD7B1030000A1296
:1009C0000800FE120800FF7B20EC3382D592D55040
:1009D00013C3E43000069FFFE49EFEE42001039D64
:1009E000FDE49CFCE4CBF8C201EC700CCFCECDCC86
:1009F000E824F8F870F38017C3EF33FFEE33FEED11
:100A000033FDEC33FCEB33FB994002FB0FD8E9EBF1
:100A1000300105F8D0E0C448B201C0E00AEC4D4E08
:100A20004F78207B0070C2EAB5190040BCC0E012CC
:100A30000A95D0F0D0E0200104C4C0E0C4B201C0E7
:100A4000F0120824D0F0D5F0EB020874120EBA09A7
:100A50001153098B5808E24C08DE42098F4F099761
:0F0A60004409974908F743099D550981460981C3
:100A6F00450981470B3D5008E62D08EA2E090D2B4D
:100A7F0008EE23090B200B262A08A64800000905BB
:100A8F003F3F3F00790AA2D5200314300509B91062
:100A9F00020404B9080104A2D52006025001042063
:100AAF0002689202B518005034C0E07F203003195D
:100ABF007F30A20272067205500F120AECC202C2F8
:100ACF0006C205C2087F30800F300503E9C0E0126F
:100ADF00083B300503D0E0F9D0E0B518CC3005174E
:100AEF007F30B9100C12083B7F583004077F788095
:100AFF0003B9080312083B3002057F2D02083B7F24
:100B0F00202008F87F2B2006F322920280CF286E38
:100B1F00756C6C2900D2011208003001F8C20178FF
:100B2F001830D50108F60208A62D5043495812086F
:100B3F00002403B405004001E4900B389312082CF5
:0D0B4F00743A12082CD20375180402098BA9
:100F6C008B088A09890AAB0BAA0CA90D120E52FE2A
:100F7C00AB08AA09A90A120E52FF6E702BEF600D76
:100F8C00E50F150F7002150E14450E70037F00222D
:100F9C007401250AF50AE43509F5097401250DF5E6
:100FAC000DE4350CF50C80BEAB08AA09A90A120E8B
:100FBC0052FDD3EE6480F8ED64809840037F0122EB
:0F0FCC00AB0BAA0CA90D120E52FFC3ED9FFF2213
:100EEC00020B5CE493A3F8E493A34003F68001F2B5
:100EFC0008DFF48029E493A3F85407240CC8C33307
:100F0C00C4540F4420C8834004F456800146F6DFD5
:100F1C00E4800B01020408102040809010E0E47E75
:100F2C00019360BCA3FF543F30E509541FFEE493CA
:100F3C00A360010ECF54C025E060A840B8E493A391
:100F4C00FAE493A3F8E493A3C8C582C8CAC583CABC
:100F5C00F0A3C8C582C8CAC583CADFE9DEE780BE74
:0110E300000C
:100E6B00BB010CE58229F582E5833AF583E022503C
:100E7B0006E92582F8E622BBFE06E92582F8E22286
:0D0E8B00E58229F582E5833AF583E49322A0
:100E9800BB010689828A83F0225002F722BBFE0139
:020EA800F32233
:100EAA00FAE6FB0808E6F925F0F618E6CA3AF62249
:100EBA00D083D082F8E4937012740193700DA3A3C7
:100ECA0093F8740193F5828883E4737402936860DB
:060EDA00EFA3A3A380DFDB
:10104100EFB40A07740D12104C740A309811A89964
:10105100B8130CC2983098FDA899C298B811F6300F
:0710610099FDC299F59922E7
:00000001FF
